:020000040800F2
:1000000038050020D1000008ED2300087121000808
:1000100000000000000000000000000000000000E0
:100020000000000000000000000000006B24000839
:100030000000000000000000692400086D24000892
:10004000E300000800000000E3000008E3000008EF
:10005000E3000008E3000008E3000008E3000008F4
:100060000000000029030008E3000008E300000886
:10007000E3000008E3000008E300000800000000BF
:1000800015250008E3000008E3000008E30000086D
:10009000E3000008E3000008E3000008E3000008B4
:1000A000E3000008E3000008E3000008E3000008A4
:1000B000E3000008E30000080448854600F03EF82D
:1000C000004800477D260008C046C046380500208D
:1000D0000448804704480047FEE7FEE7FEE7FEE7E6
:1000E000FEE7FEE705250008B900000830B50B461D
:1000F000014600202022012409E00D46D5409D4202
:1001000005D31D469540491B254695404019154687
:10011000521E002DF1DC30BDD2B201E00270401C55
:10012000491EFBD270470022F6E710B513460A4677
:1001300004461946FFF7F0FF204610BD064C012586
:10014000064E05E0E36807CC2B430C3C984710347F
:10015000B442F7D3FFF7B4FF1C2700083C27000880
:1001600070B50546AC6AA06D50210840002831D119
:10017000A06D012149020843A065206802F033F810
:10018000002823D0A07E002820D120680068082104
:10019000084008281AD1206802F01FF800280DD165
:1001A000206840680C21884321684860A06DFF21C9
:1001B0000131884301210843A06507E0A06D20219B
:1001C0000843A065E06D01210843E065204600F08A
:1001D00019FB0CE0A06D10210840002803D0204638
:1001E00000F012FB03E0206D416B2846884770BD8C
:1001F00070B50546AC6AA06D40210843A065E06D6E
:1002000004210843E065204600F0FEFA70BD70B599
:100210000446A56A284600F0F6FA70BD70B504469B
:10022000206801F0BDFF0646206801F0BFFF0028EE
:1002300031D0002E2FD12068806805210840012888
:1002400006D1206801F096FF03202168086009E0CC
:10025000A06D10210843A065E06D01210843E06511
:10026000012070BD00F050FF05460EE000F04CFF8D
:10027000401B022809D9A06D10210843A065E06D3C
:1002800001210843E0650120EBE720688068C00792
:10029000C00F0028EAD10020E3E7000070B5044653
:1002A000206801F083FF002839D1206880681D494B
:1002B0000840002809D0A06D10210843A065E06D1A
:1002C00001210843E065012070BD206801F05AFF5C
:1002D000607E012823D000F017FF054616E0206855
:1002E00001F064FF002802D1206801F04BFF00F00C
:1002F0000BFF401B022809D9A06D10210843A065FF
:10030000E06D01210843E0650120DDE72068006819
:10031000C007C00F0121484048400028DFD000201E
:10032000D2E700001700008010B5024800F0ACFCD6
:1003300010BD00007400002070B504462178084606
:1003400008381421FFF7D2FE0546206C8008800093
:1003500005494018606404488030A0641C2028408F
:1003600001218140E16470BD0008024001794A1E0C
:100370009200064BD2180265044A403242654A1E7A
:1003800093079B0F01229A40826570470009024043
:1003900070B5856CC46C6C60046D002C02D0456D2A
:1003A000846D6C600C4C64681C26056C354001261D
:1003B000AE403443084D6C60046863608468102C60
:1003C00004D10468A2600468E16003E00468A160ED
:1003D0000468E26070BD0000000002407047000049
:1003E000F8B504460020009000BF5420005D0128AD
:1003F00001D10220F8BD01215420015500BF204643
:10040000FFF70CFF0646206801F0D8FE00283DD11A
:10041000A06DFF210131884302210843A0652068B7
:10042000C0688507AD0F2068C0688008800021681B
:10043000C860206880680121C90708432168886076
:1004400013E00098401C00901649009888420CD395
:10045000A06D0221884310210843A06500BF002140
:100460005420015500BF0120C4E720688168C90FEE
:100470000029E6D12068C06828432168C860A06DC3
:100480000221884301210843A06503E0A06D1021EB
:100490000843A06500BF00215420015500BF30462D
:1004A000A8E7000000F20200F0B585B005460C4652
:1004B0000020039002900121C9072869884203D0D7
:1004C000091D2869884200D100E000BF00BF542008
:1004D000405D012802D1022005B0F0BD0121542069
:1004E000415500BF286801F078FE002876D1606889
:1004F000022874D00121C9072869884203D0091D48
:100500002869884208D128682168826A4B035B0BFE
:100510001A43826200BFC6E02179CA06D20E0F21BB
:100520009140286E884321684903490B002905D171
:100530001F22920621681140890E92E02178C90796
:10054000C90F002901D000218BE00222216811404F
:10055000022901D1012184E00422216811400429EB
:1005600001D102217DE0082221681140082901D132
:10057000032176E0102221681140102901D10421C5
:100580006FE0202221681140202901D1052168E077
:10059000402221681140402901D1062161E08022DA
:1005A00021681140802901D107215AE0FF22013240
:1005B00021681140914201D1082152E001225202EA
:1005C00021681140914201D109214AE001229202A1
:1005D00021681140914203D10A2142E0F7E0B7E0DF
:1005E0000122D20221681140914201D10B2138E051
:1005F0000122120321681140914201D10C2130E007
:100600000122520321681140914201D10D2128E0BD
:100610000122920321681140914201D10E2120E074
:100620000122D20321681140914201D10F2118E02B
:100630000122120421681140914201D1102110E0E1
:100640000122520421681140914201D1112108E098
:100650000122920421681140914201D1122100E04F
:1006600000212279D206D20E9140084328666068A4
:100670008008401CE969884215D8286822686168AA
:100680000192836ACF06FF0E0F22BA4093430F27D1
:10069000BF06019A3A40920ECF06FF0EBA401343AE
:1006A000836200BF00BF286821680091A1680191A2
:1006B0004269009909028A4300990B024A4F019945
:1006C00039400B401A43426100BF2068C00FC00789
:1006D00000281ED0454801F05DFD064644492068CB
:1006E000884217D1C0023040002813D1C8023043DD
:1006F00001463E4801F08AFD3E493F480068FFF749
:10070000F5FC029002E00298401E02900298002838
:10071000F9D162E03949206888420AD1800230402C
:10072000002806D1880230430146304801F06EFDB2
:1007300053E03349206888424FD1400230400028BE
:100740004BD1480230430146284801F05FFD44E0A8
:100750000121C9072869884203D0091D28698842F8
:1007600008D128682168826A4B035B0B9A43826236
:1007700000BF00BF2068C00FC00700282DD01B4855
:1007800001F008FD06461A492068884207D1C202D6
:10079000304690430146154801F038FD1DE01749E9
:1007A0002068884207D182023046904301460F48B4
:1007B00001F02CFD11E01249206888420DD142025F
:1007C000304690430146094801F020FD05E0A86D40
:1007D00020210843A8650120039000BF0021542078
:1007E000415500BF039877E600FFFF070827014047
:1007F000001000B0400D03000C000020004000B8C5
:10080000002000B47047704770470000FEB50446F2
:1008100000200190002500260090002C01D101202D
:10082000FEBD2069002805D00121490520698842C4
:1008300000D100BFA06D002807D1204600F042F98A
:100840000020E065002154200155206801F0BEFC25
:10085000002816D120688168924A114001221207AF
:100860001143816000BF904990480068FFF73EFC4B
:100870004000009002E00098401E00900098002880
:10088000F9D1206801F0A2FC002809D1A06D102147
:100890000843A065E06D01210843E0650120019057
:1008A000206801F09AFC0746A06D1021084000283E
:1008B0007ED1002FFCD1A06D09018843022108439D
:1008C000A065206801F072FC00282AD12068C06869
:1008D00018218843A16808432168C860206800691E
:1008E000800080086168890F8907084321680861D2
:1008F000032189076068884213D0494260688842B2
:100900000FD04900606888420BD0694880680F2189
:10091000890488430F2292046168114008436449A6
:100920008860207E8003617EC9030843A17E49035D
:100930000843216B002902D00121090300E00021B6
:100940000843E16808432169C90FC907002903D09A
:1009500021694900490801E00121490508432C218A
:10096000095D4900084305432020005D01280ED1A0
:10097000A07E002803D101200004054307E0A06DFC
:1009800020210843A065E06D01210843E065606A0D
:10099000002806D0FF21C131606A0840A16A0843DF
:1009A0000543216C606C0843A16C0843E16C00E0D6
:1009B00070E0084306433C20005D012800D1064357
:1009C0002068C0683B49084028432168C860206807
:1009D0000069394908403043216808610021626B91
:1009E000206801F01AFC3549A26B206801F015FC63
:1009F0002069002807D12068806A0F21C943084375
:100A0000216888622AE0012149052069884225D1B0
:100A1000002008E08200216ED1400907090F0F294C
:100A200000D102E0401C0828F4D300BF012807D100
:100A30002168896A0F22D2431143226891620CE037
:100A4000217F491E4907CA0E0F21C9439140226EDA
:100A500011432268926A2268916200BF2068C068D0
:100A600017490840A84208D10020E065A06D022186
:100A7000884301210843A06512E0A06D022188434C
:100A800010210843A065E06D01210843E0650120C5
:100A9000019005E0A06D10210843A06501200190A0
:100AA0000198BDE6E8FFFF7F400D03000C00002029
:100AB000002701401902FEFF02FCFFDF04FFFF07D1
:100AC000E7FF3F8310B586B00446142101A8FFF765
:100AD0002AFB34492068884261D100BF324800684F
:100AE00001210905084330490860084600680121D2
:100AF00009050840009000BF00BF00BF2A484038E9
:100B0000406B012108432849403948630846406B3F
:100B1000C007C00F009000BF00BF00BF0846406B79
:100B2000022108432049403948630846406B0221AE
:100B30000840009000BF00BFF82001900320029001
:100B40000020039001A90520000700F0F5F91748DF
:100B50000190032002900020039001A9144800F0A6
:100B6000EBF9144814490860052048600021124838
:100B70008160C160802101618900416189008161DA
:100B80002021C1610902016200F00EF9002801D0A4
:100B9000FFF724FC00BF08482065846200BF06B050
:100BA00010BD000000240140401002400704000076
:100BB000000400500800024074000020F8B504460C
:100BC0000E461746206801F008FB002850D100BFF0
:100BD0005420005D012801D10220F8BD01215420DC
:100BE000015500BF2068C068084000280DD120686A
:100BF00001F0DCFA002802D0206801F0BBFA20687E
:100C0000C068012108432168C8602046FFF746FB01
:100C10000546002D2DD1A06D17490840FF21013157
:100C20000843A0650020E0651448216DC86214489F
:100C3000216D08631348216D48631C2021680860FA
:100C400000BF00215420015500BF206840681021DA
:100C50000843216848602268114640313B463246CD
:100C6000206D00F0FFF80546206801F0C7FA00E0AB
:100C700002252846B1E70000FEF1FFFF61010008F0
:100C80000F020008F101000870B5044645480568E8
:100C9000206806681C20216C014004208840284000
:100CA000002820D00420304000281CD02068006894
:100CB00020210840002805D12068006804218843CD
:100CC00021680860374840681C22216C11400422CA
:100CD0008A40104333494860206B002860D020468A
:100CE000216B88475CE01C20216C01400220884079
:100CF0002840002828D002203040002824D0206836
:100D0000006820210840002808D1206800680A21D6
:100D10008843216808600121252001552148416848
:100D20001C22206C10400222824011431D48416069
:100D300000BF00212420015500BFE06A00282FD009
:100D40002046E16A88472BE01C20216C01400820E6
:100D500088402840002823D00820304000281FD099
:100D6000206800680E218843216808600D484168AA
:100D70001C22206C1040012282401143094841602E
:100D80000120E06301212520015500BF002124201E
:100D9000015500BF606B002802D02046616B884778
:100DA00070BD00000000024010B50446002C01D1C7
:100DB000012010BD294A2168881A1421FFF796F9ED
:100DC0008000206402212520015520680068244904
:100DD000084021680860E168A06808432169084369
:100DE00061690843A1690843E1690843216A08432E
:100DF000216809680843216808602046FFF79CFACB
:100E000001218903A068884201D100206060207917
:100E1000616C0860A16CE06C4860606800280CD0D0
:100E20006068042809D82046FFF7A0FA0020216D49
:100E30000860616DA06D486003E00020206560657A
:100E4000A0650020E06301212520015500BF00219D
:100E50002420015500BF0020ABE70000080002403D
:100E60000F80FFFFF8B504460D4616461F460020CA
:100E7000009000BF2420005D012801D10220F8BDB0
:100E800001212420015500BF2520005D012844D107
:100E90000221252001550020E063206800684008F9
:100EA0004000216808603B46324629462046FFF74D
:100EB0006FFA206B002806D0206800680E210843D6
:100EC000216808600BE020680068042188432168DD
:100ED0000860206800680A21084321680860606C87
:100EE0000068012109040840002805D0606C0068F2
:100EF00009120843616C0860206D002806D0206D3F
:100F00000068FF2101310843216D086020680068F6
:100F1000012108432168086006E000BF0021242069
:100F2000015500BF0220009000BF00212420015580
:100F300000BF0098A3E7000070B503460022D5E08B
:100F4000012696400C683440002C71D04D68022D6B
:100F500002D04D68122D15D1D508AE001D462035A2
:100F6000A8595507EE0E0F25B5400646AE4330464C
:100F70005607F60E0D69B5402843D508AD001E464C
:100F800020367051186856000325B5400646AE431A
:100F900030460D79AD07AD0F5600B54028431860B7
:100FA0004D68012D08D04D68022D05D04D68112DDA
:100FB00002D04D68122D18D1986856000325B5400F
:100FC0000646AE4330465600CD68B540284398608B
:100FD0005868012595400646AE43304610264D68B8
:100FE00035402D09954028435860D86856000325A0
:100FF000B5400646AE43304656008D68B54028439E
:10100000D860012636074D683540B5426DD13A4D5E
:101010009608B600A8599507EE0E0F25B54006466E
:10102000AE43304605252D07AB4202D1002510E026
:101030005BE0324DAB4201D101250AE0304DAB42BD
:1010400001D1022505E02F4DAB4201D1032500E07F
:1010500005259607F60EB5402843274D9608B6009D
:10106000A851254D203528680546A5432846012668
:1010700036044D683540B54202D105462543284621
:101080001D4D2035286068680546A5432846012681
:1010900076044D683540B54202D1054625432846C1
:1010A000154D20356860144D603D28680546A54300
:1010B0002846012636054D683540B54202D1054621
:1010C000254328460C4D603D286068680546A543C9
:1010D0002846012676054D683540B54202D10546C1
:1010E00025432846044D603D6860521C0D68D5407C
:1010F000002D00D024E770BD6018024000040050AD
:1011000000080050000C00500148006870470000C3
:10111000000000200348006803490968401801499D
:1011200008607047000000200800002010B500246F
:1011300008480068FF210131084306490860002083
:1011400000F00AF8002801D0012401E000F034F892
:10115000204610BD00200240F8B504460025134883
:10116000006800281ED0114801687D20C000FEF7ED
:10117000BDFF074639460E480068FEF7B7FF064632
:1011800000F0B6FD00280BD1042C07D20022214626
:10119000401E00F03FF80748046004E0012502E02B
:1011A000012500E001252846F8BD000008000020C8
:1011B0000C0000200400002008B500BF0E480068A5
:1011C000012108430C49086008460068C007C00FA9
:1011D000009000BF00BF00BF07484038C06B8905C2
:1011E000084305494039C8630846C06B09040840F4
:1011F000009000BF00BF08BD4010024000BFC20603
:10120000D20E01219140024A116000BF70470000D8
:1012100000E100E070B504460D461646294620461A
:1012200001F0E6F870BD000070B504461148006892
:1012300003214902884320430E490860481584422F
:1012400016D10D4909680622514308460B49FEF79D
:101250004DFF451C05E0002D01D06D1E01E003206F
:1012600070BD044840690121890208408842F2D0DB
:101270000020F5E7007000400C00002040420F0005
:10128000FEB5044600270020029001214904206891
:10129000084088427BD1002001907748C06BC9028A
:1012A000084000280ED100BF7348C06B0843724944
:1012B000C8630846C06B09040840009000BF00BF27
:1012C000012001906D480068FF21013108436B49FE
:1012D0000860FFF719FF064606E0FFF715FF801BC1
:1012E000022801D9032706E064480068FF21013184
:1012F00008400028F1D000BF002F4BD15E4840309D
:10130000C569032109020D40002D1AD0A069A84229
:1013100017D059484030C069884305465648403088
:10132000C06901210904084353494031C861084696
:10133000C0690121090488434F494031C86108460A
:10134000C561E807C00F002813D0FFF7DDFE064691
:1013500007E0FFF7D9FE801B4949884201D90327DE
:1013600006E045484030C069022108400028F0D01E
:1013700000BF002F0CD140484030C0690321090252
:101380008843A16908433C494031C86103E00DE04E
:10139000029700E002970198012806D13648C06BF9
:1013A0000121090788433449C86300BF2078C0077A
:1013B000C00F002809D030484030406980088000C4
:1013C000616808432C494031486102212068084087
:1013D000022809D12848403040690C218843A1687F
:1013E0000843254940314861402120680840402891
:1013F0000AD1214840304069032109038843E1684C
:1014000008431D4940314861012189032068084093
:10141000884213D1184840304069800080086169D3
:10142000084315494031486109066069884205D181
:101430001148C068891308430F49C8600121C902D7
:1014400020680840884215D10B484030406903218C
:1014500089038843216908430749403148610121D4
:1014600089032069884205D10348C0688900084380
:101470000149C8600298FEBD0010024000700040A3
:101480008813000070B504460D46002C01D10120E0
:1014900070BD6B4800684007400FA84218D26848EA
:1014A0000068C008C000284365490860FFF72CFEAB
:1014B000064607E0FFF728FE801B6249884201D9F3
:1014C0000320E5E75E4800684007400FA842F1D1DD
:1014D000022120680840022815D104212068084014
:1014E000042807D158488068072109038843401819
:1014F00055498860544880680F2109028843A168D3
:101500000843514988602078C007C00F002854D094
:101510006068012808D14C4800680121490408404E
:1015200000282ED10120B3E76068022808D1464880
:101530000068012149060840002822D10120A7E7C0
:101540006068002808D140480068012189020840ED
:10155000002816D101209BE76068032808D13A488B
:101560004030006A0221084000280AD101208FE79C
:1015700035484030C06902210840002801D10120CF
:1015800086E731488068C008C000616808432E497A
:101590008860FFF7B9FD064607E0FFF7B5FD801B41
:1015A0002849884201D9032072E7274880683821FA
:1015B00008406168C9008842EFD1214800684007AF
:1015C000400FA84218D91E480068C008C000284330
:1015D0001B490860FFF798FD064607E0FFF794FDFA
:1015E000801B1849884201D9032051E7144800683C
:1015F0004007400FA842F1D1042120680840042888
:1016000008D111488068072109038843E16808432D
:101610000D49886000F020F80B4989680F221202FA
:101620001140090A8900094A515CC906C90EC8401F
:101630000749086007480068FFF78EFD28E70000AB
:10164000002002408813000000100240BC26000861
:101650000C00002004000020FEB5354880683821C9
:10166000084000280DD13248006809020840C10A2C
:101670000120884000902F480099FEF737FD04466E
:1016800054E02B48806838210840082801D12A4CB2
:101690004CE02748806838210840102834D124487D
:1016A000C0688607B60F2248C0687021084000094C
:1016B000401C0190022E0FD0032E0CD11E48019920
:1016C000FEF714FD1A49C9687F2212021140090A67
:1016D000484305460DE000BF16480199FEF706FD98
:1016E0001349C9687F2212021140090A484305467E
:1016F00000BF00BF0E48C068400F471C394628464F
:10170000FEF7F4FC044611E00948806838210840DF
:10171000202801D1840209E005488068382108406A
:10172000182802D17D24240200E000242046FEBDBA
:10173000001002400024F40000127A00FEB50446B6
:10174000002C01D10120FEBD2078C007C00F002869
:101750006FD0F748876838210F40C0688607B60FFA
:10176000102F01D1032E01D0082F0BD1F0480068B3
:1017700001214904084000285BD06068002858D146
:101780000120E0E700BF012109046068884205D11B
:10179000E74800680843E649086021E0052109049C
:1017A000606888420ED1E24800680121890408433C
:1017B000DF49086008460068012109040843DC4944
:1017C00008600DE0DA480068012109048843D8491F
:1017D000086008460068012189048843D4490860EC
:1017E00000BF6068002812D0FFF78EFC054606E0B7
:1017F000FFF78AFC401B642801D90320A3E7CC48EB
:1018000000680121490408400028F1D011E0FFF7E9
:101810007BFC054606E0FFF777FC401B642801D9F6
:10182000032090E7C24800680121490408400028CD
:10183000F1D1022120680840022873D1BC48806899
:10184000382108400746BA48C0688607B60F102FEF
:1018500001D1022E01D0002F36D1B54800680121F8
:1018600089020840002804D0E068002801D1012046
:1018700069E7AF4840687F2109028843616909022E
:101880000843AB494860002F16D10846006807217D
:10189000C902884321690843A549086008460068D1
:1018A0000722D2021040C20A012090400146A148FE
:1018B000FEF71CFCA0490860A0480068FFF74CFC3C
:1018C000002849D001203EE7E06800282BD0984846
:1018D00000680721C90288432169084394490860C8
:1018E000084600688915084391490860FFF70CFC19
:1018F000054606E0FFF708FC401B022801D903203B
:1019000021E78B4800680121890208400028F1D0B6
:10191000874840687F2109028843616909020843BA
:101920008349486018E082480068FF2101318843FC
:101930007F490860FFF7E8FB054606E0FFF7E4FB98
:10194000401B022801D90320FDE6794800680121E7
:10195000890208400028F1D10821206808400828A1
:1019600049D1734880683821084018280BD1704845
:101970004030006A0221084000283CD0A0690028BD
:1019800039D10120DFE6A06900281AD0684840302C
:10199000006A01210843664940310862FFF7B4FB41
:1019A000054606E0FFF7B0FB401B022801D90320E3
:1019B000C9E65F484030006A022108400028F1D0A3
:1019C00019E05B484030006A400840005849403107
:1019D0000862FFF799FB054606E0FFF795FB401B01
:1019E000022801D90320AEE651484030006A0221A6
:1019F00008400028F1D104212068084004287CD147
:101A0000002001904A4880683821084020280BD1E6
:101A100047484030C0690221084000286ED0A068C5
:101A200000286BD101208EE64148C06B010F0120D8
:101A30008843002810D000BF3D48C06B0121090732
:101A400008433B49C8630846C06B0904084000903E
:101A500000BF00BF0120019039480068FF2101311B
:101A60000840002816D13648006808433449086009
:101A7000FFF74AFB054606E0FFF746FB401B02283E
:101A800001D903205FE62E480068FF21013108409C
:101A90000028F1D000BFA068012808D124484030B8
:101AA000C0690121084322494031C86120E0A06893
:101AB00005280FD11E484030C069042108431C4945
:101AC0004031C8610846C0690121084318494031C6
:101AD000C8610DE016484030C0694108490014480B
:101AE0004030C161C0690421884311494031C86157
:101AF00000BFA068002816D001E040E03EE0FFF7FC
:101B000003FB054607E0FFF7FFFA401B0D4988423B
:101B100001D9032017E606484030C0690221084079
:101B20000028F0D01EE0FFF7EFFA054614E00000B1
:101B3000001002400024F4000C00002004000020EB
:101B40000070004088130000FFF7DEFA401B644974
:101B5000884201D90320F6E56248C06902210840A5
:101B60000028F1D10198012808D15E484038C06BA7
:101B70000121090788435B494039C86300BFE06918
:101B800000285AD05748403880683821084010282B
:101B90007ED0E069022851D15248403800680121C6
:101BA000090688434F4940390860FFF7ADFA0546FA
:101BB00006E0FFF7A9FA401B022801D90320C2E57D
:101BC0004848403800680121490608400028F0D103
:101BD000616A206A0843A16A09020843E16A08436E
:101BE000216B08433F494039C9683F4A11400843C7
:101BF0003C494039C860084600680121090608438D
:101C00003849403908600846C06809040843354926
:101C10004039C860FFF778FA054606E0FFF774FA26
:101C2000401B022801D903208DE52E48403800686A
:101C30000121490608400028F0D04EE029484038EC
:101C40000068012109068843264940390860084692
:101C5000C06880088000C8600846C0682349084002
:101C600020494039C860FFF74FFA054607E0FFF703
:101C70004BFA401B022802D9032064E508E019480A
:101C8000403800680121490608400028EFD124E0CF
:101C9000E069012800D156E512484038C668B1070E
:101CA000890F206A814216D170203040616A8842D3
:101CB00011D17F2000023040A16A090288420AD176
:101CC0001F2040043040E16A884204D1710F490767
:101CD000206B814201D0012035E5002033E5000072
:101CE00088130000401002408C80C11FFFFFFEEFF0
:101CF00070B504462546681E0949884201D901206D
:101D00000CE0681E074948610321081F00F070FBC2
:101D100000200449886107200861002070BD000090
:101D2000FFFFFF0000E000E07047704770470000D1
:101D300030B502460B4600BF3C20805C012801D133
:101D4000022030BD01253C20855400BF02253D20E6
:101D500085541068416810688468124D1068A84264
:101D600006D10F252D050846A843014658680143B2
:101D700070250846A843014618680143802520467F
:101D8000A843044698680443106841601068846062
:101D900001253D20855400BF00253C20855400BF0F
:101DA0000020CEE7002C014010B50446002C01D1E4
:101DB000012010BD3D20005D002805D100213C2000
:101DC0000155204600F00CF802213D200155211D4F
:101DD000206800F0A7FB01213D2001550020E8E725
:101DE00038B504460D492068884215D100BF0C481B
:101DF000C06B022108430A49C8630846C06B022130
:101E00000840009000BF00BF002211461020FFF7DD
:101E100001FA1020FFF7F2F938BD0000000400407D
:101E200000100240014602233D20435408688068A8
:101E3000094B18400246062A08D0D81F824205D016
:101E400008680068012318430B68186001233D20CF
:101E5000435400207047000007000100F8B5044615
:101E60000D4600BF3C20005D012801D10220F8BDD5
:101E700001213C20015500BF02213D200155206871
:101E8000866839480640FF210902304688430646E5
:101E9000206886602868502834D00CDC202851D077
:101EA00004DC00284CD0102852D14AE030284AD017
:101EB00040284DD13AE060282ED0702807D001216B
:101EC0000903401A02D0401A42D10DE041E0EB680C
:101ED0006A68A968206800F075FB2068866877202A
:101EE00006432068866034E0EB686A68A968206869
:101EF00000F068FB2068806801218903084321689D
:101F0000886026E0EA686968206800F075FB502167
:101F1000206800F065FB1CE0EA686968206800F052
:101F200084FB6021206800F05BFB12E0EA686968CE
:101F3000206800F061FB4021206800F051FB08E0C0
:101F400000BF00BF00BF2968206800F049FB00E027
:101F500000BF00BF01213D20015500BF00213C20F2
:101F6000015500BF002082E788FFCEFF70470000C8
:101F700010B5044620680069022108404008002886
:101F80001CD02068C06808404008002816D0481FB0
:101F90002168086101202077206880698007800F10
:101FA000002803D02046FFF7E1FF05E0204600F0BF
:101FB000DBF8204600F0D9F800202077206800697F
:101FC00004210840800800281DD02068C06808400F
:101FD0008008002817D0C8432168086102202077B4
:101FE00020688069032109020840002803D02046A8
:101FF000FFF7BCFF05E0204600F0B6F8204600F0F1
:10200000B4F8002020772068006908210840C00843
:1020100000281CD02068C0680840C008002816D0DE
:10202000C84321680861042020772068C0698007C0
:10203000800F002803D02046FFF798FF05E02046D8
:1020400000F092F8204600F090F8002020772068F9
:10205000006910210840000900281DD02068C068D0
:1020600008400009002817D0C843216808610820EB
:1020700020772068C069032109020840002803D0A6
:102080002046FFF773FF05E0204600F06DF820467C
:1020900000F06BF80020207720680069C007C00FAF
:1020A00001214840484000280CD02068C068084002
:1020B00048404840002805D0C81E216808612046D5
:1020C00000F054F82068006980210840C009002809
:1020D0000BD02068C0680840C009002805D0C8435C
:1020E000216808612046FFF720FE20680069FF2173
:1020F00001310840000A00280CD02068C068802107
:102100000840C009002805D016482168086120460B
:10211000FFF70AFE20680069402108408009002876
:102120000BD02068C06808408009002805D0C8434B
:1021300021680861204600F01AF820680069202113
:102140000840400900280BD02068C06808404009BA
:10215000002805D0C843216808612046FFF7E6FD46
:1021600010BD0000FFFEFFFF7047704770477047CB
:1021700000BFFEE78168024A1140891C81607047F8
:10218000E8FFFF7F8168024A1140491C8160704767
:10219000E8FFFF7F0146086807229205104070475C
:1021A000014688680222104040087047014688684E
:1021B000C007C00F01225040504070470146886858
:1021C000C007C00F01225040504070470146886848
:1021D000012212071040000F704701468868042250
:1021E0001040800870470146C868032292021040E0
:1021F000002801D1012070470020FCE78168024AD5
:102200001140091D81607047E8FFFF7F02680723C6
:102210009B059A430A430260704730B54369042422
:102220000D4625400724AC40A34304240C4015462A
:10223000A5402B43436130BD0EB5002000900190B6
:1022400002901F481F4908600005486000211D4892
:102250008160C16001610821416100210176417600
:1022600081760121C1610021001D017713218901BF
:10227000001F416201218902816201212430017223
:10228000002124380163032141638163002124304C
:1022900001762438C164FEF7B9FA002801D0FEF7B0
:1022A0009DF8094800900020019002906946054879
:1022B000FEF7FAF8002801D0FEF790F80EBD0000F6
:1022C00000240140100000200800000C08B500BFE9
:1022D0000A48806B01210843084988630846806BDF
:1022E000C007C00F009000BF00BF002211460920A8
:1022F000FEF790FF0920FEF781FF08BD00100240A5
:1023000008B500BF1B48406B0421084319494863C6
:102310000846406B04210840009000BF00BF00BF8A
:102320001448406B20210843124948630846406B1B
:1023300020210840009000BF00BF00BF0D48406B47
:10234000012108430B4948630846406BC007C00F92
:10235000009000BF00BF00BF0846406B0221084349
:10236000044948630846406B02210840009000BFC2
:1023700000BF08BD0010024000B587B000200390E8
:10238000049005900690009001900290154816491F
:1023900008603F204860002113488160F921C16036
:1023A000002101618161FFF7FFFC002801D0FEF7E9
:1023B00015F801200003039003A90B48FFF74EFD19
:1023C000002801D0FEF70AF820200090002002909B
:1023D00069460548FFF7ACFC002801D0FDF7FEFF79
:1023E00007B000BD00040040D0000020704700008E
:1023F00010B5002819DA1A4A03071B0F083B9B087F
:102400009B00D2588307DC0EFF23A3409A438B071F
:102410001B0E8407E40EA3401A43114B0407240F3C
:10242000083CA408A4001A5118E00E4A03231B021A
:10243000D21883089B00D2588307DC0EFF23A340E9
:102440009A438B071B0E8407E40EA3401A43054BE7
:10245000032424021B198408A4001A5110BD000093
:102460001CED00E000E100E07047704710B5FEF79A
:1024700051FE10BD00B599B034210CA8FDF753FEF4
:102480000020089009900A900B901C2101A8FDF7EC
:102490004AFE01204002FEF7C7FE01200C90000416
:1024A0000D90022013900321149100211591102109
:1024B000169101041791010718910CA8FFF73EF936
:1024C000002801D0FDF78AFF07200890022009901C
:1024D00000200A900B90022108A8FEF7D3FF0028E5
:1024E00001D0FDF77BFF01208003019000200690C2
:1024F00001A8FEF7C5FE002801D0FDF76FFF19B057
:1025000000BD00000120C00601498860704700003E
:1025100000ED00E010B50248FFF72AFD10BD0000F5
:10252000D000002010B50268204B984202D0204B0A
:10253000984205D170241346A3431A464B681A43A8
:102540001A4B98420ED01A4B98420BD0194B984216
:1025500008D0194B984205D0184B984202D0184B1E
:10256000984206D1032424021346A3431A46CB689B
:102570001A4380241346A3434C6923431A4602603E
:102580008B68C3620B688362084B984208D00A4B81
:10259000984205D0094B984202D0094B984201D18C
:1025A0000B6903630123436110BD0000002C01404F
:1025B0000004004000200040004001400044014071
:1025C0000048014070B50C468168FF2636020D4672
:1025D000B54329461D02154325432943816070BD3B
:1025E0000A468168034B194007231343194381604E
:1025F000704700008FFFCFFF70B50B461446026A8C
:10260000056A6D086D0005628169F0260D46B543C7
:102610002946250129430A261546B5432A4615466B
:102620001D432A468161026270BD70B50B46144697
:10263000056A1026B54305628169026A0F263603D2
:102640000D46B543294625032943A0261546B54323
:102650002A461D012A438161026270BD02E008C85A
:10266000121F08C1002AFAD170477047002001E00C
:1026700001C1121F002AFBD170470000FEF756FD72
:10268000FFF7F8FEFFF73CFEFFF720FEFFF7D4FD53
:10269000FFF772FE0648FFF7C5FB0648FDF7A0FEF0
:1026A000092205490348FEF789FA00BFFEE700004A
:1026B000D0000020100000201001002000000000C9
:1026C000000000000000000000000000000000000A
:1026D00000000000000000000000000001000000F9
:1026E00002000000030000000400000006000000DB
:1026F00007000000080000000900000000000000C2
:1027000000000000000000000000000001000000C8
:102710000200000003000000040000003C27000845
:1027200000000020100000005C2600084C27000874
:1027300010000020280500006C26000800000000A2
:0C27400004000000010000000024F40070
:04000005080000B936
:00000001FF
